{
  "_format": "hh-sol-artifact-1",
  "contractName": "AlgebraEternalFarming",
  "sourceName": "contracts/farmings/AlgebraEternalFarming.sol",
  "abi": [
    {
      "inputs": [
        {
          "internalType": "contract IAlgebraPoolDeployer",
          "name": "_deployer",
          "type": "address"
        },
        {
          "internalType": "contract INonfungiblePositionManager",
          "name": "_nonfungiblePositionManager",
          "type": "address"
        }
      ],
      "stateMutability": "nonpayable",
      "type": "constructor"
    },
    {
      "inputs": [],
      "name": "anotherFarmingIsActive",
      "type": "error"
    },
    {
      "inputs": [],
      "name": "claimToZeroAddress",
      "type": "error"
    },
    {
      "inputs": [],
      "name": "emergencyActivated",
      "type": "error"
    },
    {
      "inputs": [],
      "name": "farmDoesNotExist",
      "type": "error"
    },
    {
      "inputs": [],
      "name": "incentiveNotExist",
      "type": "error"
    },
    {
      "inputs": [],
      "name": "incentiveStopped",
      "type": "error"
    },
    {
      "inputs": [],
      "name": "invalidPool",
      "type": "error"
    },
    {
      "inputs": [],
      "name": "invalidTokenAmount",
      "type": "error"
    },
    {
      "inputs": [],
      "name": "minimalPositionWidthTooWide",
      "type": "error"
    },
    {
      "inputs": [],
      "name": "pluginNotConnected",
      "type": "error"
    },
    {
      "inputs": [],
      "name": "poolReentrancyLock",
      "type": "error"
    },
    {
      "inputs": [],
      "name": "positionIsTooNarrow",
      "type": "error"
    },
    {
      "inputs": [],
      "name": "reentrancyLock",
      "type": "error"
    },
    {
      "inputs": [],
      "name": "tokenAlreadyFarmed",
      "type": "error"
    },
    {
      "inputs": [],
      "name": "zeroLiquidity",
      "type": "error"
    },
    {
      "inputs": [],
      "name": "zeroRewardAmount",
      "type": "error"
    },
    {
      "anonymous": false,
      "inputs": [
        {
          "indexed": false,
          "internalType": "bool",
          "name": "newStatus",
          "type": "bool"
        }
      ],
      "name": "EmergencyWithdraw",
      "type": "event"
    },
    {
      "anonymous": false,
      "inputs": [
        {
          "indexed": true,
          "internalType": "contract IERC20Minimal",
          "name": "rewardToken",
          "type": "address"
        },
        {
          "indexed": true,
          "internalType": "contract IERC20Minimal",
          "name": "bonusRewardToken",
          "type": "address"
        },
        {
          "indexed": true,
          "internalType": "contract IAlgebraPool",
          "name": "pool",
          "type": "address"
        },
        {
          "indexed": false,
          "internalType": "address",
          "name": "virtualPool",
          "type": "address"
        },
        {
          "indexed": false,
          "internalType": "uint256",
          "name": "nonce",
          "type": "uint256"
        },
        {
          "indexed": false,
          "internalType": "uint256",
          "name": "reward",
          "type": "uint256"
        },
        {
          "indexed": false,
          "internalType": "uint256",
          "name": "bonusReward",
          "type": "uint256"
        },
        {
          "indexed": false,
          "internalType": "uint24",
          "name": "minimalAllowedPositionWidth",
          "type": "uint24"
        }
      ],
      "name": "EternalFarmingCreated",
      "type": "event"
    },
    {
      "anonymous": false,
      "inputs": [
        {
          "indexed": true,
          "internalType": "uint256",
          "name": "tokenId",
          "type": "uint256"
        },
        {
          "indexed": true,
          "internalType": "bytes32",
          "name": "incentiveId",
          "type": "bytes32"
        },
        {
          "indexed": true,
          "internalType": "address",
          "name": "rewardAddress",
          "type": "address"
        },
        {
          "indexed": false,
          "internalType": "address",
          "name": "bonusRewardToken",
          "type": "address"
        },
        {
          "indexed": false,
          "internalType": "address",
          "name": "owner",
          "type": "address"
        },
        {
          "indexed": false,
          "internalType": "uint256",
          "name": "reward",
          "type": "uint256"
        },
        {
          "indexed": false,
          "internalType": "uint256",
          "name": "bonusReward",
          "type": "uint256"
        }
      ],
      "name": "FarmEnded",
      "type": "event"
    },
    {
      "anonymous": false,
      "inputs": [
        {
          "indexed": true,
          "internalType": "uint256",
          "name": "tokenId",
          "type": "uint256"
        },
        {
          "indexed": true,
          "internalType": "bytes32",
          "name": "incentiveId",
          "type": "bytes32"
        },
        {
          "indexed": false,
          "internalType": "uint128",
          "name": "liquidity",
          "type": "uint128"
        }
      ],
      "name": "FarmEntered",
      "type": "event"
    },
    {
      "anonymous": false,
      "inputs": [
        {
          "indexed": true,
          "internalType": "address",
          "name": "farmingCenter",
          "type": "address"
        }
      ],
      "name": "FarmingCenter",
      "type": "event"
    },
    {
      "anonymous": false,
      "inputs": [
        {
          "indexed": true,
          "internalType": "bytes32",
          "name": "incentiveId",
          "type": "bytes32"
        }
      ],
      "name": "IncentiveDeactivated",
      "type": "event"
    },
    {
      "anonymous": false,
      "inputs": [
        {
          "indexed": false,
          "internalType": "uint256",
          "name": "rewardAmount",
          "type": "uint256"
        },
        {
          "indexed": false,
          "internalType": "uint256",
          "name": "bonusRewardAmount",
          "type": "uint256"
        },
        {
          "indexed": false,
          "internalType": "bytes32",
          "name": "incentiveId",
          "type": "bytes32"
        }
      ],
      "name": "RewardAmountsDecreased",
      "type": "event"
    },
    {
      "anonymous": false,
      "inputs": [
        {
          "indexed": true,
          "internalType": "address",
          "name": "to",
          "type": "address"
        },
        {
          "indexed": false,
          "internalType": "uint256",
          "name": "reward",
          "type": "uint256"
        },
        {
          "indexed": true,
          "internalType": "address",
          "name": "rewardAddress",
          "type": "address"
        },
        {
          "indexed": true,
          "internalType": "address",
          "name": "owner",
          "type": "address"
        }
      ],
      "name": "RewardClaimed",
      "type": "event"
    },
    {
      "anonymous": false,
      "inputs": [
        {
          "indexed": false,
          "internalType": "uint256",
          "name": "rewardAmount",
          "type": "uint256"
        },
        {
          "indexed": false,
          "internalType": "uint256",
          "name": "bonusRewardAmount",
          "type": "uint256"
        },
        {
          "indexed": false,
          "internalType": "bytes32",
          "name": "incentiveId",
          "type": "bytes32"
        }
      ],
      "name": "RewardsAdded",
      "type": "event"
    },
    {
      "anonymous": false,
      "inputs": [
        {
          "indexed": false,
          "internalType": "uint256",
          "name": "tokenId",
          "type": "uint256"
        },
        {
          "indexed": false,
          "internalType": "bytes32",
          "name": "incentiveId",
          "type": "bytes32"
        },
        {
          "indexed": false,
          "internalType": "uint256",
          "name": "rewardAmount",
          "type": "uint256"
        },
        {
          "indexed": false,
          "internalType": "uint256",
          "name": "bonusRewardAmount",
          "type": "uint256"
        }
      ],
      "name": "RewardsCollected",
      "type": "event"
    },
    {
      "anonymous": false,
      "inputs": [
        {
          "indexed": false,
          "internalType": "uint128",
          "name": "rewardRate",
          "type": "uint128"
        },
        {
          "indexed": false,
          "internalType": "uint128",
          "name": "bonusRewardRate",
          "type": "uint128"
        },
        {
          "indexed": false,
          "internalType": "bytes32",
          "name": "incentiveId",
          "type": "bytes32"
        }
      ],
      "name": "RewardsRatesChanged",
      "type": "event"
    },
    {
      "inputs": [],
      "name": "FARMINGS_ADMINISTRATOR_ROLE",
      "outputs": [
        {
          "internalType": "bytes32",
          "name": "",
          "type": "bytes32"
        }
      ],
      "stateMutability": "view",
      "type": "function"
    },
    {
      "inputs": [],
      "name": "INCENTIVE_MAKER_ROLE",
      "outputs": [
        {
          "internalType": "bytes32",
          "name": "",
          "type": "bytes32"
        }
      ],
      "stateMutability": "view",
      "type": "function"
    },
    {
      "inputs": [
        {
          "components": [
            {
              "internalType": "contract IERC20Minimal",
              "name": "rewardToken",
              "type": "address"
            },
            {
              "internalType": "contract IERC20Minimal",
              "name": "bonusRewardToken",
              "type": "address"
            },
            {
              "internalType": "contract IAlgebraPool",
              "name": "pool",
              "type": "address"
            },
            {
              "internalType": "uint256",
              "name": "nonce",
              "type": "uint256"
            }
          ],
          "internalType": "struct IncentiveKey",
          "name": "key",
          "type": "tuple"
        },
        {
          "internalType": "uint128",
          "name": "rewardAmount",
          "type": "uint128"
        },
        {
          "internalType": "uint128",
          "name": "bonusRewardAmount",
          "type": "uint128"
        }
      ],
      "name": "addRewards",
      "outputs": [],
      "stateMutability": "nonpayable",
      "type": "function"
    },
    {
      "inputs": [
        {
          "internalType": "contract IERC20Minimal",
          "name": "rewardToken",
          "type": "address"
        },
        {
          "internalType": "address",
          "name": "to",
          "type": "address"
        },
        {
          "internalType": "uint256",
          "name": "amountRequested",
          "type": "uint256"
        }
      ],
      "name": "claimReward",
      "outputs": [
        {
          "internalType": "uint256",
          "name": "reward",
          "type": "uint256"
        }
      ],
      "stateMutability": "nonpayable",
      "type": "function"
    },
    {
      "inputs": [
        {
          "internalType": "contract IERC20Minimal",
          "name": "rewardToken",
          "type": "address"
        },
        {
          "internalType": "address",
          "name": "from",
          "type": "address"
        },
        {
          "internalType": "address",
          "name": "to",
          "type": "address"
        },
        {
          "internalType": "uint256",
          "name": "amountRequested",
          "type": "uint256"
        }
      ],
      "name": "claimRewardFrom",
      "outputs": [
        {
          "internalType": "uint256",
          "name": "reward",
          "type": "uint256"
        }
      ],
      "stateMutability": "nonpayable",
      "type": "function"
    },
    {
      "inputs": [
        {
          "components": [
            {
              "internalType": "contract IERC20Minimal",
              "name": "rewardToken",
              "type": "address"
            },
            {
              "internalType": "contract IERC20Minimal",
              "name": "bonusRewardToken",
              "type": "address"
            },
            {
              "internalType": "contract IAlgebraPool",
              "name": "pool",
              "type": "address"
            },
            {
              "internalType": "uint256",
              "name": "nonce",
              "type": "uint256"
            }
          ],
          "internalType": "struct IncentiveKey",
          "name": "key",
          "type": "tuple"
        },
        {
          "internalType": "uint256",
          "name": "tokenId",
          "type": "uint256"
        },
        {
          "internalType": "address",
          "name": "_owner",
          "type": "address"
        }
      ],
      "name": "collectRewards",
      "outputs": [
        {
          "internalType": "uint256",
          "name": "reward",
          "type": "uint256"
        },
        {
          "internalType": "uint256",
          "name": "bonusReward",
          "type": "uint256"
        }
      ],
      "stateMutability": "nonpayable",
      "type": "function"
    },
    {
      "inputs": [
        {
          "components": [
            {
              "internalType": "contract IERC20Minimal",
              "name": "rewardToken",
              "type": "address"
            },
            {
              "internalType": "contract IERC20Minimal",
              "name": "bonusRewardToken",
              "type": "address"
            },
            {
              "internalType": "contract IAlgebraPool",
              "name": "pool",
              "type": "address"
            },
            {
              "internalType": "uint256",
              "name": "nonce",
              "type": "uint256"
            }
          ],
          "internalType": "struct IncentiveKey",
          "name": "key",
          "type": "tuple"
        },
        {
          "components": [
            {
              "internalType": "uint128",
              "name": "reward",
              "type": "uint128"
            },
            {
              "internalType": "uint128",
              "name": "bonusReward",
              "type": "uint128"
            },
            {
              "internalType": "uint128",
              "name": "rewardRate",
              "type": "uint128"
            },
            {
              "internalType": "uint128",
              "name": "bonusRewardRate",
              "type": "uint128"
            },
            {
              "internalType": "uint24",
              "name": "minimalPositionWidth",
              "type": "uint24"
            }
          ],
          "internalType": "struct IAlgebraEternalFarming.IncentiveParams",
          "name": "params",
          "type": "tuple"
        },
        {
          "internalType": "address",
          "name": "plugin",
          "type": "address"
        }
      ],
      "name": "createEternalFarming",
      "outputs": [
        {
          "internalType": "address",
          "name": "virtualPool",
          "type": "address"
        }
      ],
      "stateMutability": "nonpayable",
      "type": "function"
    },
    {
      "inputs": [
        {
          "components": [
            {
              "internalType": "contract IERC20Minimal",
              "name": "rewardToken",
              "type": "address"
            },
            {
              "internalType": "contract IERC20Minimal",
              "name": "bonusRewardToken",
              "type": "address"
            },
            {
              "internalType": "contract IAlgebraPool",
              "name": "pool",
              "type": "address"
            },
            {
              "internalType": "uint256",
              "name": "nonce",
              "type": "uint256"
            }
          ],
          "internalType": "struct IncentiveKey",
          "name": "key",
          "type": "tuple"
        }
      ],
      "name": "deactivateIncentive",
      "outputs": [],
      "stateMutability": "nonpayable",
      "type": "function"
    },
    {
      "inputs": [
        {
          "components": [
            {
              "internalType": "contract IERC20Minimal",
              "name": "rewardToken",
              "type": "address"
            },
            {
              "internalType": "contract IERC20Minimal",
              "name": "bonusRewardToken",
              "type": "address"
            },
            {
              "internalType": "contract IAlgebraPool",
              "name": "pool",
              "type": "address"
            },
            {
              "internalType": "uint256",
              "name": "nonce",
              "type": "uint256"
            }
          ],
          "internalType": "struct IncentiveKey",
          "name": "key",
          "type": "tuple"
        },
        {
          "internalType": "uint128",
          "name": "rewardAmount",
          "type": "uint128"
        },
        {
          "internalType": "uint128",
          "name": "bonusRewardAmount",
          "type": "uint128"
        }
      ],
      "name": "decreaseRewardsAmount",
      "outputs": [],
      "stateMutability": "nonpayable",
      "type": "function"
    },
    {
      "inputs": [
        {
          "components": [
            {
              "internalType": "contract IERC20Minimal",
              "name": "rewardToken",
              "type": "address"
            },
            {
              "internalType": "contract IERC20Minimal",
              "name": "bonusRewardToken",
              "type": "address"
            },
            {
              "internalType": "contract IAlgebraPool",
              "name": "pool",
              "type": "address"
            },
            {
              "internalType": "uint256",
              "name": "nonce",
              "type": "uint256"
            }
          ],
          "internalType": "struct IncentiveKey",
          "name": "key",
          "type": "tuple"
        },
        {
          "internalType": "uint256",
          "name": "tokenId",
          "type": "uint256"
        }
      ],
      "name": "enterFarming",
      "outputs": [],
      "stateMutability": "nonpayable",
      "type": "function"
    },
    {
      "inputs": [
        {
          "components": [
            {
              "internalType": "contract IERC20Minimal",
              "name": "rewardToken",
              "type": "address"
            },
            {
              "internalType": "contract IERC20Minimal",
              "name": "bonusRewardToken",
              "type": "address"
            },
            {
              "internalType": "contract IAlgebraPool",
              "name": "pool",
              "type": "address"
            },
            {
              "internalType": "uint256",
              "name": "nonce",
              "type": "uint256"
            }
          ],
          "internalType": "struct IncentiveKey",
          "name": "key",
          "type": "tuple"
        },
        {
          "internalType": "uint256",
          "name": "tokenId",
          "type": "uint256"
        },
        {
          "internalType": "address",
          "name": "_owner",
          "type": "address"
        }
      ],
      "name": "exitFarming",
      "outputs": [],
      "stateMutability": "nonpayable",
      "type": "function"
    },
    {
      "inputs": [],
      "name": "farmingCenter",
      "outputs": [
        {
          "internalType": "address",
          "name": "",
          "type": "address"
        }
      ],
      "stateMutability": "view",
      "type": "function"
    },
    {
      "inputs": [
        {
          "internalType": "uint256",
          "name": "tokenId",
          "type": "uint256"
        },
        {
          "internalType": "bytes32",
          "name": "incentiveId",
          "type": "bytes32"
        }
      ],
      "name": "farms",
      "outputs": [
        {
          "internalType": "uint128",
          "name": "liquidity",
          "type": "uint128"
        },
        {
          "internalType": "int24",
          "name": "tickLower",
          "type": "int24"
        },
        {
          "internalType": "int24",
          "name": "tickUpper",
          "type": "int24"
        },
        {
          "internalType": "uint256",
          "name": "innerRewardGrowth0",
          "type": "uint256"
        },
        {
          "internalType": "uint256",
          "name": "innerRewardGrowth1",
          "type": "uint256"
        }
      ],
      "stateMutability": "view",
      "type": "function"
    },
    {
      "inputs": [
        {
          "components": [
            {
              "internalType": "contract IERC20Minimal",
              "name": "rewardToken",
              "type": "address"
            },
            {
              "internalType": "contract IERC20Minimal",
              "name": "bonusRewardToken",
              "type": "address"
            },
            {
              "internalType": "contract IAlgebraPool",
              "name": "pool",
              "type": "address"
            },
            {
              "internalType": "uint256",
              "name": "nonce",
              "type": "uint256"
            }
          ],
          "internalType": "struct IncentiveKey",
          "name": "key",
          "type": "tuple"
        },
        {
          "internalType": "uint256",
          "name": "tokenId",
          "type": "uint256"
        }
      ],
      "name": "getRewardInfo",
      "outputs": [
        {
          "internalType": "uint256",
          "name": "reward",
          "type": "uint256"
        },
        {
          "internalType": "uint256",
          "name": "bonusReward",
          "type": "uint256"
        }
      ],
      "stateMutability": "view",
      "type": "function"
    },
    {
      "inputs": [
        {
          "internalType": "address",
          "name": "pool",
          "type": "address"
        }
      ],
      "name": "incentiveKeys",
      "outputs": [
        {
          "internalType": "contract IERC20Minimal",
          "name": "rewardToken",
          "type": "address"
        },
        {
          "internalType": "contract IERC20Minimal",
          "name": "bonusRewardToken",
          "type": "address"
        },
        {
          "internalType": "contract IAlgebraPool",
          "name": "pool",
          "type": "address"
        },
        {
          "internalType": "uint256",
          "name": "nonce",
          "type": "uint256"
        }
      ],
      "stateMutability": "view",
      "type": "function"
    },
    {
      "inputs": [
        {
          "internalType": "bytes32",
          "name": "incentiveId",
          "type": "bytes32"
        }
      ],
      "name": "incentives",
      "outputs": [
        {
          "internalType": "uint128",
          "name": "totalReward",
          "type": "uint128"
        },
        {
          "internalType": "uint128",
          "name": "bonusReward",
          "type": "uint128"
        },
        {
          "internalType": "address",
          "name": "virtualPoolAddress",
          "type": "address"
        },
        {
          "internalType": "uint24",
          "name": "minimalPositionWidth",
          "type": "uint24"
        },
        {
          "internalType": "bool",
          "name": "deactivated",
          "type": "bool"
        },
        {
          "internalType": "address",
          "name": "pluginAddress",
          "type": "address"
        }
      ],
      "stateMutability": "view",
      "type": "function"
    },
    {
      "inputs": [],
      "name": "isEmergencyWithdrawActivated",
      "outputs": [
        {
          "internalType": "bool",
          "name": "",
          "type": "bool"
        }
      ],
      "stateMutability": "view",
      "type": "function"
    },
    {
      "inputs": [
        {
          "internalType": "bytes32",
          "name": "incentiveId",
          "type": "bytes32"
        }
      ],
      "name": "isIncentiveDeactivated",
      "outputs": [
        {
          "internalType": "bool",
          "name": "res",
          "type": "bool"
        }
      ],
      "stateMutability": "view",
      "type": "function"
    },
    {
      "inputs": [],
      "name": "nonfungiblePositionManager",
      "outputs": [
        {
          "internalType": "contract INonfungiblePositionManager",
          "name": "",
          "type": "address"
        }
      ],
      "stateMutability": "view",
      "type": "function"
    },
    {
      "inputs": [],
      "name": "numOfIncentives",
      "outputs": [
        {
          "internalType": "uint256",
          "name": "",
          "type": "uint256"
        }
      ],
      "stateMutability": "view",
      "type": "function"
    },
    {
      "inputs": [
        {
          "internalType": "address",
          "name": "owner",
          "type": "address"
        },
        {
          "internalType": "contract IERC20Minimal",
          "name": "rewardToken",
          "type": "address"
        }
      ],
      "name": "rewards",
      "outputs": [
        {
          "internalType": "uint256",
          "name": "rewardAmount",
          "type": "uint256"
        }
      ],
      "stateMutability": "view",
      "type": "function"
    },
    {
      "inputs": [
        {
          "internalType": "bool",
          "name": "newStatus",
          "type": "bool"
        }
      ],
      "name": "setEmergencyWithdrawStatus",
      "outputs": [],
      "stateMutability": "nonpayable",
      "type": "function"
    },
    {
      "inputs": [
        {
          "internalType": "address",
          "name": "_farmingCenter",
          "type": "address"
        }
      ],
      "name": "setFarmingCenterAddress",
      "outputs": [],
      "stateMutability": "nonpayable",
      "type": "function"
    },
    {
      "inputs": [
        {
          "components": [
            {
              "internalType": "contract IERC20Minimal",
              "name": "rewardToken",
              "type": "address"
            },
            {
              "internalType": "contract IERC20Minimal",
              "name": "bonusRewardToken",
              "type": "address"
            },
            {
              "internalType": "contract IAlgebraPool",
              "name": "pool",
              "type": "address"
            },
            {
              "internalType": "uint256",
              "name": "nonce",
              "type": "uint256"
            }
          ],
          "internalType": "struct IncentiveKey",
          "name": "key",
          "type": "tuple"
        },
        {
          "internalType": "uint128",
          "name": "rewardRate",
          "type": "uint128"
        },
        {
          "internalType": "uint128",
          "name": "bonusRewardRate",
          "type": "uint128"
        }
      ],
      "name": "setRates",
      "outputs": [],
      "stateMutability": "nonpayable",
      "type": "function"
    }
  ],
  "bytecode": "0x60e06040526000805460ff60a81b1916600160a81b1790553480156200002457600080fd5b5060405162005dd138038062005dd18339810160408190526200004791620000ed565b6001600160a01b03808216608081905290831660a0526040805163c45a015560e01b8152905163c45a0155916004808201926020929091908290030181865afa15801562000099573d6000803e3d6000fd5b505050506040513d601f19601f82011682018060405250810190620000bf91906200012c565b6001600160a01b031660c05250620001539050565b6001600160a01b0381168114620000ea57600080fd5b50565b600080604083850312156200010157600080fd5b82516200010e81620000d4565b60208401519092506200012181620000d4565b809150509250929050565b6000602082840312156200013f57600080fd5b81516200014c81620000d4565b9392505050565b60805160a05160c051615c476200018a6000396000611f5e015260006125e801526000818161055d01526126090152615c476000f3fe60806040523480156200001157600080fd5b5060043610620001b95760003560e01c80638433524111620000f5578063dd56e5d81162000097578063f2256319116200006e578063f22563191462000628578063f26ebf7a146200064e578063f6de3cae146200066557600080fd5b8063dd56e5d814620005cf578063df42efda14620005e3578063e70b9e2714620005fa57600080fd5b8063b44a272211620000cc578063b44a27221462000557578063b5bae00a146200057f578063b8883c5014620005a757600080fd5b8063843352411462000512578063890cdcb3146200052957806396da9bd5146200054057600080fd5b80633c6d0715116200015f57806357655846116200013657806357655846146200038c57806360777795146200040b57806382bd79ea146200050857600080fd5b80633c6d0715146200031d578063547b6da914620003455780635739f0b9146200037557600080fd5b80632912bf1011620001945780632912bf1014620002d65780632f2d783d14620002ef57806336808b19146200030657600080fd5b8063046ec16614620001be5780630a53075414620001ef57806327e6a99a1462000215575b600080fd5b620001d5620001cf366004620032a2565b6200067c565b604080519283526020830191909152015b60405180910390f35b6200020662000200366004620032e8565b620007f2565b604051908152602001620001e6565b620002946200022636600462003340565b6002602081815260009384526040808520909152918352912080546001820154918301546fffffffffffffffffffffffffffffffff8216937001000000000000000000000000000000008304810b93730100000000000000000000000000000000000000909304900b919085565b604080516fffffffffffffffffffffffffffffffff9096168652600294850b60208701529290930b918401919091526060830152608082015260a001620001e6565b620002ed620002e736600462003363565b62000815565b005b620002066200030036600462003382565b62000b36565b620002ed62000317366004620032a2565b62000b50565b620002067f681ab0361ab5f3ae8c1d864335ef2b9a8c12a6a67e1ed0f4083d00a4b8a9a39581565b6200035c62000356366004620033e7565b62000cde565b6040516001600160a01b039091168152602001620001e6565b620002ed62000386366004620034d1565b62001286565b620003d56200039d366004620034ff565b600360208190526000918252604090912080546001820154600283015492909301546001600160a01b03918216938216929091169084565b604051620001e694939291906001600160a01b039485168152928416602084015292166040820152606081019190915260800190565b620004b16200041c3660046200351f565b60016020819052600091825260409091208054918101546002909101546fffffffffffffffffffffffffffffffff80841693700100000000000000000000000000000000900416916001600160a01b038082169274010000000000000000000000000000000000000000830462ffffff169277010000000000000000000000000000000000000000000000900460ff16911686565b604080516fffffffffffffffffffffffffffffffff97881681529690951660208701526001600160a01b039384169486019490945262ffffff9091166060850152151560808401521660a082015260c001620001e6565b6200020660045481565b620002ed6200052336600462003539565b62001482565b620002ed6200053a3660046200358e565b62001546565b620001d562000551366004620034d1565b62001616565b6200035c7f000000000000000000000000000000000000000000000000000000000000000081565b62000596620005903660046200351f565b62001667565b6040519015158152602001620001e6565b620002067fa777c10270ee0b99d2c737c09ff865ed48064b252418bbd31d39c8b88ea1221981565b6000546200035c906001600160a01b031681565b620002ed620005f4366004620034ff565b62001686565b620002066200060b366004620035ae565b600560209081526000928352604080842090915290825290205481565b600054620005969074010000000000000000000000000000000000000000900460ff1681565b620002ed6200065f36600462003539565b6200172d565b620002ed6200067636600462003539565b620017cc565b6000806200068962001b41565b600080620006978762001b5b565b915091506000620006a9878462001c28565b60018301549091506001600160a01b0316620006c58162001d17565b600080620006d4838562001d6f565b809450819550829a50839b50505050506000600260008c8152602001908152602001600020600088815260200190815260200160002090508281600101819055508181600201819055506000600560008c6001600160a01b03166001600160a01b0316815260200190815260200160002090508960001462000770578c516001600160a01b0316600090815260208290526040902080548b0190555b88156200079a576020808e01516001600160a01b03166000908152908290526040902080548a0190555b604080518d8152602081018a90529081018b9052606081018a90527f15b2e0f32b50efdbbdee9ec7884ed3c61e6209b1b395e5762011a6734b86f7b59060800160405180910390a15050505050505050935093915050565b6000620007fe62001b41565b6200080c8585858562001e12565b95945050505050565b620008407fa777c10270ee0b99d2c737c09ff865ed48064b252418bbd31d39c8b88ea1221962001f29565b6000806200084e8362001b5b565b6001810154919350915077010000000000000000000000000000000000000000000000900460ff1615620008ae576040517f260e553a00000000000000000000000000000000000000000000000000000000815260040160405180910390fd5b60018101805460028301547fffffffffffffffff00ffffffffffffffffffffffffffffffffffffffffffffff82167701000000000000000000000000000000000000000000000017909255604080517f51b42b0000000000000000000000000000000000000000000000000000000000815290516001600160a01b03928316939092169183916351b42b0091600480830192600092919082900301818387803b1580156200095b57600080fd5b505af115801562000970573d6000803e3d6000fd5b5050506040808701516001600160a01b0390811660009081526003602081905283822080547fffffffffffffffffffffffff000000000000000000000000000000000000000090811682556001820180548216905560028201805490911690550181905582517fa88a5c16000000000000000000000000000000000000000000000000000000008152835191945084939287169263a88a5c16926004808401938290030181865afa15801562000a2a573d6000803e3d6000fd5b505050506040513d601f19601f8201168201806040525081019062000a509190620035f9565b915091508082176fffffffffffffffffffffffffffffffff1660001462000a805762000a80846000808962001fe1565b6000546040517f2bd34c480000000000000000000000000000000000000000000000000000000081526001600160a01b038681166004830152858116602483015290911690632bd34c4890604401600060405180830381600087803b15801562000ae957600080fd5b505af115801562000afe573d6000803e3d6000fd5b50506040518892507f907b91fb061b1c46367da11a5a0e8b2c0bd5fecd22eb92967e626cffa5ef63869150600090a250505050505050565b600062000b468433858562001e12565b90505b9392505050565b62000b5a62001b41565b600062000bbf846040805182516001600160a01b0390811660208084019190915284015181168284015291830151909116606080830191909152820151608082015260009060a001604051602081830303815290604052805190602001209050919050565b9050600062000bcf848362001c28565b9050600080600060149054906101000a900460ff1662000c295762000c238388868862000c1288600001516fffffffffffffffffffffffffffffffff16620020cb565b62000c1d906200365c565b620020e2565b90925090505b6000868152600260208181526040808420888552825280842080547fffffffffffffffffffff00000000000000000000000000000000000000000000168155600181018590559092019290925588518983015182516001600160a01b03918216815289821694810194909452918301859052606083018490521690859088907f7f2557bb15dcf63e3d029ef1dcb4333563fcd78edf263b8fe42ed3adb925ff849060800160405180910390a450505050505050565b600062000d0b7fa777c10270ee0b99d2c737c09ff865ed48064b252418bbd31d39c8b88ea1221962001f29565b600084604001516001600160a01b031663ef01df4f6040518163ffffffff1660e01b8152600401602060405180830381865afa15801562000d50573d6000803e3d6000fd5b505050506040513d601f19601f8201168201806040525081019062000d769190620036aa565b9050826001600160a01b0316816001600160a01b031614158062000da157506001600160a01b038116155b1562000dd9576040517f093d6f1700000000000000000000000000000000000000000000000000000000815260040160405180910390fd5b60006001600160a01b0316816001600160a01b0316631d4632ac6040518163ffffffff1660e01b8152600401602060405180830381865afa15801562000e23573d6000803e3d6000fd5b505050506040513d601f19601f8201168201806040525081019062000e499190620036aa565b6001600160a01b03161462000e8a576040517f47146bcc00000000000000000000000000000000000000000000000000000000815260040160405180910390fd5b308160405162000e9a9062003172565b6001600160a01b03928316815291166020820152604001604051809103906000f08015801562000ece573d6000803e3d6000fd5b506000546040517fd68516bc0000000000000000000000000000000000000000000000000000000081526001600160a01b038084166004830152848116602483015292945091169063d68516bc90604401600060405180830381600087803b15801562000f3a57600080fd5b505af115801562000f4f573d6000803e3d6000fd5b50506004805492509050600062000f6683620036ca565b9091555060608601908152604080870180516001600160a01b039081166000908152600360208181529482208b5181549085167fffffffffffffffffffffffff0000000000000000000000000000000000000000918216178255958c0151600182018054918616918816919091179055935160028501805491909416951694909417909155925191015562001053866040805182516001600160a01b0390811660208084019190915284015181168284015291830151909116606080830191909152820151608082015260009060a001604051602081830303815290604052805190602001209050919050565b6000818152600160209081526040909120875191880151929350916200107c918991846200223f565b6fffffffffffffffffffffffffffffffff908116602089015216808752600003620010d3576040517f36ab0f6a00000000000000000000000000000000000000000000000000000000815260040160405180910390fd5b6080860151621b13d062ffffff90911613156200111c576040517f1db9891100000000000000000000000000000000000000000000000000000000815260040160405180910390fd5b600181018054608088015162ffffff811674010000000000000000000000000000000000000000027fffffffffffffffffff00000000000000000000000000000000000000000000009092166001600160a01b0380891691909117929092179092556002830180548683167fffffffffffffffffffffffff0000000000000000000000000000000000000000919091161790556040808a01516020808c01518c5160608e01518d51938e01519551948716979287169691909116947fcef9468c62cd8a6eca3a887fc30674c037943e423de07ab3a122bdf2f73c77e19462001248948d949092916001600160a01b0395909516855260208501939093526fffffffffffffffffffffffffffffffff918216604085015216606083015262ffffff16608082015260a00190565b60405180910390a46200126684876000015188602001518562002411565b6200127c84876040015188606001518562001fe1565b5050509392505050565b6200129062001b41565b60005474010000000000000000000000000000000000000000900460ff1615620012e6576040517f05bfeb5900000000000000000000000000000000000000000000000000000000815260040160405180910390fd5b6000806000806000620012fa8787620024f2565b939850919650945092509050806000806200131783888862002761565b915091506040518060a00160405280866fffffffffffffffffffffffffffffffff1681526020018860020b81526020018760020b815260200183815260200182815250600260008b815260200190815260200160002060008a815260200190815260200160002060008201518160000160006101000a8154816fffffffffffffffffffffffffffffffff02191690836fffffffffffffffffffffffffffffffff16021790555060208201518160000160106101000a81548162ffffff021916908360020b62ffffff16021790555060408201518160000160136101000a81548162ffffff021916908360020b62ffffff160217905550606082015181600101556080820151816002015590505087897f19bc21617a8d86ff19202ac9541480a99b9ae5fbd573a23f14f479af784392c4876040516200146e91906fffffffffffffffffffffffffffffffff91909116815260200190565b60405180910390a350505050505050505050565b620014ad7fa777c10270ee0b99d2c737c09ff865ed48064b252418bbd31d39c8b88ea1221962001f29565b600080620014bb8562001b5b565b600181015491935091506001600160a01b03166fffffffffffffffffffffffffffffffff8585171615801590620014f85750620014f88262002801565b1562001530576040517f260e553a00000000000000000000000000000000000000000000000000000000815260040160405180910390fd5b6200153e8186868662001fe1565b505050505050565b620015717f681ab0361ab5f3ae8c1d864335ef2b9a8c12a6a67e1ed0f4083d00a4b8a9a39562001f29565b801515600060149054906101000a900460ff161515036200159157600080fd5b6000805482151574010000000000000000000000000000000000000000027fffffffffffffffffffffff00ffffffffffffffffffffffffffffffffffffffff9091161790556040517fee20b3d336390a4b077dbc7d702bf6e35a954bc96106f37b9e5ef08a1d0ce059906200160b90831515815260200190565b60405180910390a150565b600080600080620016278662001b5b565b91509150600062001639868462001c28565b60018301549091506001600160a01b031662001656818362001d6f565b50919a909950975050505050505050565b6000818152600160205260408120620016809062002801565b92915050565b620016b17f681ab0361ab5f3ae8c1d864335ef2b9a8c12a6a67e1ed0f4083d00a4b8a9a39562001f29565b6000546001600160a01b0390811690821603620016cd57600080fd5b600080547fffffffffffffffffffffffff0000000000000000000000000000000000000000166001600160a01b038316908117825560405190917f29f9e1ebeee07596f3165f3e42cb9d4d8d22b0481e968d6c74be3dd037c15d9b91a250565b6000806200173b8562001b5b565b915091506200174a8162002801565b1562001782576040517f260e553a00000000000000000000000000000000000000000000000000000000815260040160405180910390fd5b60018101546001600160a01b03166200179e868686856200223f565b90955093506fffffffffffffffffffffffffffffffff85851716156200153e576200153e8186868662002411565b620017f77f681ab0361ab5f3ae8c1d864335ef2b9a8c12a6a67e1ed0f4083d00a4b8a9a39562001f29565b600080620018058562001b5b565b600181015491935091506001600160a01b0316620018238162001d17565b600080826001600160a01b031663f0de82286040518163ffffffff1660e01b81526004016040805180830381865afa15801562001864573d6000803e3d6000fd5b505050506040513d601f19601f820116820180604052508101906200188a9190620035f9565b91509150816fffffffffffffffffffffffffffffffff16876fffffffffffffffffffffffffffffffff161115620018bf578196505b83546fffffffffffffffffffffffffffffffff908116908816106200190357835462001900906001906fffffffffffffffffffffffffffffffff1662003705565b96505b8354620019249088906fffffffffffffffffffffffffffffffff1662003705565b84547fffffffffffffffffffffffffffffffff00000000000000000000000000000000166fffffffffffffffffffffffffffffffff918216178555818116908716111562001970578095505b8354620019a590879070010000000000000000000000000000000090046fffffffffffffffffffffffffffffffff1662003705565b84546fffffffffffffffffffffffffffffffff9182167001000000000000000000000000000000000291161784556040517fca16ca7e0000000000000000000000000000000000000000000000000000000081526001600160a01b0384169063ca16ca7e9062001a39908a908a906004016fffffffffffffffffffffffffffffffff92831681529116602082015260400190565b600060405180830381600087803b15801562001a5457600080fd5b505af115801562001a69573d6000803e3d6000fd5b505050506fffffffffffffffffffffffffffffffff87161562001aa757875162001aa790336fffffffffffffffffffffffffffffffff8a166200289d565b6fffffffffffffffffffffffffffffffff86161562001ae35762001ae3886020015133886fffffffffffffffffffffffffffffffff166200289d565b604080516fffffffffffffffffffffffffffffffff808a168252881660208201529081018690527f808ecc37f6d601dde1e43c133bee66af0ff9409b53aca0eb0d4f6c65fb8956e89060600160405180910390a15050505050505050565b6000546001600160a01b0316331462001b5957600080fd5b565b60008062001bc1836040805182516001600160a01b0390811660208084019190915284015181168284015291830151909116606080830191909152820151608082015260009060a001604051602081830303815290604052805190602001209050919050565b6000818152600160205260408120805492945092506fffffffffffffffffffffffffffffffff909116900362001c23576040517fe4c8229200000000000000000000000000000000000000000000000000000000815260040160405180910390fd5b915091565b6040805160a0810182526000808252602082018190529181018290526060810182905260808101919091525060008281526002602081815260408084208585528252808420815160a08101835281546fffffffffffffffffffffffffffffffff81168083527001000000000000000000000000000000008204870b958301959095527301000000000000000000000000000000000000009004850b928101929092526001810154606083015290920154608083015290910362001680576040517f7aa92c6600000000000000000000000000000000000000000000000000000000815260040160405180910390fd5b806001600160a01b0316636f4a2cd06040518163ffffffff1660e01b8152600401600060405180830381600087803b15801562001d5357600080fd5b505af115801562001d68573d6000803e3d6000fd5b5050505050565b60008060008062001d8a868660200151876040015162002761565b6060870151875192945090925062001dca91908403906fffffffffffffffffffffffffffffffff1670010000000000000000000000000000000062002a07565b62001e048660800151830387600001516fffffffffffffffffffffffffffffffff1670010000000000000000000000000000000062002a07565b909790965091945092509050565b60006001600160a01b03831662001e55576040517fabd1763600000000000000000000000000000000000000000000000000000000815260040160405180910390fd5b506001600160a01b0380841660009081526005602090815260408083209388168352908390529020549082158062001e8c57508183115b1562001e96578192505b821562001f20576001600160a01b0386166000908152602082905260409020838303905562001ec78685856200289d565b846001600160a01b0316866001600160a01b0316856001600160a01b03167fe6ac6a784fb43c9f6329d2f5c82f88a26a93bad4281f7780725af5f071f0aafa8660405162001f1791815260200190565b60405180910390a45b50949350505050565b6040517fe8ae2b69000000000000000000000000000000000000000000000000000000008152600481018290523360248201527f00000000000000000000000000000000000000000000000000000000000000006001600160a01b03169063e8ae2b6990604401602060405180830381865afa15801562001fae573d6000803e3d6000fd5b505050506040513d601f19601f8201168201806040525081019062001fd4919062003738565b62001fde57600080fd5b50565b6040517f7f463bb80000000000000000000000000000000000000000000000000000000081526fffffffffffffffffffffffffffffffff8085166004830152831660248201526001600160a01b03851690637f463bb890604401600060405180830381600087803b1580156200205657600080fd5b505af11580156200206b573d6000803e3d6000fd5b5050604080516fffffffffffffffffffffffffffffffff8088168252861660208201529081018490527f1864e4cc903d98e44820faebd48409c410a2ad20adb3173984ba41ae2828805e925060600190505b60405180910390a150505050565b80600f81900b8114620020dd57600080fd5b919050565b60008381526001602081905260408220908101548291906001600160a01b0316826200210e8362002801565b620021285762002122896040015162002ac1565b6200218d565b816001600160a01b0316638e76c3326040518163ffffffff1660e01b8152600401602060405180830381865afa15801562002167573d6000803e3d6000fd5b505050506040513d601f19601f820116820180604052508101906200218d91906200376b565b90506200219a8262001d17565b620021a6828b62001d6f565b9050508095508196505050620021c8828b602001518c60400151898562002b73565b6001600160a01b03871660009081526005602052604090208515620022075789516001600160a01b031660009081526020829052604090208054870190555b841562002231576020808b01516001600160a01b0316600090815290829052604090208054860190555b505050509550959350505050565b6000805481907501000000000000000000000000000000000000000000900460ff1662002298576040517f2446d79f00000000000000000000000000000000000000000000000000000000815260040160405180910390fd5b600080547fffffffffffffffffffff00ffffffffffffffffffffffffffffffffffffffffff1690556fffffffffffffffffffffffffffffffff851615620022ea578551620022e7908662002c0c565b91505b6fffffffffffffffffffffffffffffffff84161562002316576200231386602001518562002c0c565b90505b600080547fffffffffffffffffffff00ffffffffffffffffffffffffffffffffffffffffff16750100000000000000000000000000000000000000000017905582546fffffffffffffffffffffffffffffffff808216917001000000000000000000000000000000009004166200238e848362003789565b85547fffffffffffffffffffffffffffffffff00000000000000000000000000000000166fffffffffffffffffffffffffffffffff91909116178555620023d6838262003789565b85546fffffffffffffffffffffffffffffffff9182167001000000000000000000000000000000000291161790945550909590945092505050565b6040517ffddf08e50000000000000000000000000000000000000000000000000000000081526fffffffffffffffffffffffffffffffff8085166004830152831660248201526001600160a01b0385169063fddf08e590604401600060405180830381600087803b1580156200248657600080fd5b505af11580156200249b573d6000803e3d6000fd5b5050604080516fffffffffffffffffffffffffffffffff8088168252861660208201529081018490527f8b0312d8047895ce795779b66b705ccd39b1ece7c162f642c72d76a785d1b68a92506060019050620020bd565b600080600080600080620025068862001b5b565b600089815260026020908152604080832085845290915290205491975091506fffffffffffffffffffffffffffffffff16156200256f576040517ff352b37500000000000000000000000000000000000000000000000000000000815260040160405180910390fd5b60018101546001600160a01b038116925074010000000000000000000000000000000000000000900462ffffff16620025a88262002801565b15620025e0576040517f260e553a00000000000000000000000000000000000000000000000000000000815260040160405180910390fd5b60006200262f7f00000000000000000000000000000000000000000000000000000000000000007f00000000000000000000000000000000000000000000000000000000000000008b62002ca6565b60408e0151929a5090985096509091506001600160a01b0380831691161462002684576040517fdce2809300000000000000000000000000000000000000000000000000000000815260040160405180910390fd5b846fffffffffffffffffffffffffffffffff16600003620026d1576040517f4eed436000000000000000000000000000000000000000000000000000000000815260040160405180910390fd5b8162ffffff168760020b8760020b03121562002719576040517feab0585000000000000000000000000000000000000000000000000000000000815260040160405180910390fd5b6000620027268262002ac1565b9050620027538589896200274c8a6fffffffffffffffffffffffffffffffff16620020cb565b8562002b73565b505050509295509295909350565b6040517f0bd6f200000000000000000000000000000000000000000000000000000000008152600283810b600483015282900b602482015260009081906001600160a01b03861690630bd6f200906044016040805180830381865afa158015620027cf573d6000803e3d6000fd5b505050506040513d601f19601f82011682018060405250810190620027f59190620037b5565b91509150935093915050565b60018101546000906001600160a01b0381169077010000000000000000000000000000000000000000000000900460ff168062000b4957816001600160a01b031663556ed30e6040518163ffffffff1660e01b8152600401602060405180830381865afa15801562002877573d6000803e3d6000fd5b505050506040513d601f19601f8201168201806040525081019062000b46919062003738565b604080516001600160a01b038481166024830152604480830185905283518084039091018152606490920183526020820180517bffffffffffffffffffffffffffffffffffffffffffffffffffffffff167fa9059cbb000000000000000000000000000000000000000000000000000000001790529151600092839290871691620029299190620037da565b6000604051808303816000865af19150503d806000811462002968576040519150601f19603f3d011682016040523d82523d6000602084013e6200296d565b606091505b50915091508180156200299b5750805115806200299b5750808060200190518101906200299b919062003738565b62001d68576040517f08c379a000000000000000000000000000000000000000000000000000000000815260206004820152600260248201527f535400000000000000000000000000000000000000000000000000000000000060448201526064015b60405180910390fd5b6000838302817fffffffffffffffffffffffffffffffffffffffffffffffffffffffffffffffff8587098281108382030391505080841162002a4857600080fd5b8060000362002a5d5750829004905062000b49565b8385870960008581038616958690049560026003880281188089028203028089028203028089028203028089028203028089028203028089029091030291819003819004600101858411909403939093029190930391909104170290509392505050565b600080826001600160a01b031663e76c01e46040518163ffffffff1660e01b815260040160c060405180830381865afa15801562002b03573d6000803e3d6000fd5b505050506040513d601f19601f8201168201806040525081019062002b2991906200381e565b93965092945084935062002b6d92505050576040517f9ded0f5700000000000000000000000000000000000000000000000000000000815260040160405180910390fd5b50919050565b6040517fd6b83ede000000000000000000000000000000000000000000000000000000008152600285810b600483015284810b6024830152600f84900b604483015282900b60648201526001600160a01b0386169063d6b83ede90608401600060405180830381600087803b15801562002bec57600080fd5b505af115801562002c01573d6000803e3d6000fd5b505050505050505050565b60008062002c1a8462002d82565b905062002c3c843330866fffffffffffffffffffffffffffffffff1662002e09565b600062002c498562002d82565b905081811162002c5857600080fd5b8181036fffffffffffffffffffffffffffffffff8111156200080c576040517f3ba11f1e00000000000000000000000000000000000000000000000000000000815260040160405180910390fd5b6000806000806000806000886001600160a01b03166399fbab88896040518263ffffffff1660e01b815260040162002ce091815260200190565b61018060405180830381865afa15801562002cff573d6000803e3d6000fd5b505050506040513d601f19601f8201168201806040525081019062002d259190620038ac565b5050604080516060810182526001600160a01b038089168252808b166020830152891691810191909152949f50929d50909b5094995092975090955062002d7494508e9350915062002f779050565b965050505093509350935093565b6040517f70a082310000000000000000000000000000000000000000000000000000000081523060048201526000906001600160a01b038316906370a0823190602401602060405180830381865afa15801562002de3573d6000803e3d6000fd5b505050506040513d601f19601f82011682018060405250810190620016809190620039a0565b604080516001600160a01b0385811660248301528481166044830152606480830185905283518084039091018152608490920183526020820180517bffffffffffffffffffffffffffffffffffffffffffffffffffffffff167f23b872dd00000000000000000000000000000000000000000000000000000000179052915160009283929088169162002e9d9190620037da565b6000604051808303816000865af19150503d806000811462002edc576040519150601f19603f3d011682016040523d82523d6000602084013e62002ee1565b606091505b509150915081801562002f0f57508051158062002f0f57508080602001905181019062002f0f919062003738565b6200153e576040517f08c379a000000000000000000000000000000000000000000000000000000000815260206004820152600360248201527f53544600000000000000000000000000000000000000000000000000000000006044820152606401620029fe565b600081604001516001600160a01b031682602001516001600160a01b03161062002ffe576040517f08c379a000000000000000000000000000000000000000000000000000000000815260206004820152601760248201527f496e76616c6964206f72646572206f6620746f6b656e730000000000000000006044820152606401620029fe565b815183906001600160a01b0316156200306057825160208085015160408087015190516200304b9493016001600160a01b0393841681529183166020830152909116604082015260600190565b6040516020818303038152906040526200309e565b60208084015160408086015190516200308e93016001600160a01b0392831681529116602082015260400190565b6040516020818303038152906040525b80516020918201206040516200313593927f798513eceab50ea3bcd604560d296e779ca84b36fc265ef19a84de3035dad3b091017fff00000000000000000000000000000000000000000000000000000000000000815260609390931b7fffffffffffffffffffffffffffffffffffffffff0000000000000000000000001660018401526015830191909152603582015260550190565b604080517fffffffffffffffffffffffffffffffffffffffffffffffffffffffffffffffe081840301815291905280516020909101209392505050565b61228080620039bb83390190565b60405160a0810167ffffffffffffffff81118282101715620031cb577f4e487b7100000000000000000000000000000000000000000000000000000000600052604160045260246000fd5b60405290565b6001600160a01b038116811462001fde57600080fd5b600060808284031215620031fa57600080fd5b6040516080810181811067ffffffffffffffff8211171562003245577f4e487b7100000000000000000000000000000000000000000000000000000000600052604160045260246000fd5b60405290508082356200325881620031d1565b815260208301356200326a81620031d1565b602082015260408301356200327f81620031d1565b6040820152606092830135920191909152919050565b8035620020dd81620031d1565b600080600060c08486031215620032b857600080fd5b620032c48585620031e7565b92506080840135915060a0840135620032dd81620031d1565b809150509250925092565b60008060008060808587031215620032ff57600080fd5b84356200330c81620031d1565b935060208501356200331e81620031d1565b925060408501356200333081620031d1565b9396929550929360600135925050565b600080604083850312156200335457600080fd5b50508035926020909101359150565b6000608082840312156200337657600080fd5b62000b498383620031e7565b6000806000606084860312156200339857600080fd5b8335620033a581620031d1565b92506020840135620033b781620031d1565b929592945050506040919091013590565b6fffffffffffffffffffffffffffffffff8116811462001fde57600080fd5b6000806000838503610140811215620033ff57600080fd5b6200340b8686620031e7565b935060a07fffffffffffffffffffffffffffffffffffffffffffffffffffffffffffffff80820112156200343e57600080fd5b506200344962003180565b60808501356200345981620033c8565b815260a08501356200346b81620033c8565b602082015260c08501356200348081620033c8565b604082015260e08501356200349581620033c8565b606082015261010085013562ffffff81168114620034b257600080fd5b60808201529150620034c8610120850162003295565b90509250925092565b60008060a08385031215620034e557600080fd5b620034f18484620031e7565b946080939093013593505050565b6000602082840312156200351257600080fd5b813562000b4981620031d1565b6000602082840312156200353257600080fd5b5035919050565b600080600060c084860312156200354f57600080fd5b6200355b8585620031e7565b925060808401356200356d81620033c8565b915060a0840135620032dd81620033c8565b801515811462001fde57600080fd5b600060208284031215620035a157600080fd5b813562000b49816200357f565b60008060408385031215620035c257600080fd5b8235620035cf81620031d1565b91506020830135620035e181620031d1565b809150509250929050565b8051620020dd81620033c8565b600080604083850312156200360d57600080fd5b82516200361a81620033c8565b6020840151909250620035e181620033c8565b7f4e487b7100000000000000000000000000000000000000000000000000000000600052601160045260246000fd5b600081600f0b7fffffffffffffffffffffffffffffffff8000000000000000000000000000000081036200369457620036946200362d565b60000392915050565b8051620020dd81620031d1565b600060208284031215620036bd57600080fd5b815162000b4981620031d1565b60007fffffffffffffffffffffffffffffffffffffffffffffffffffffffffffffffff8203620036fe57620036fe6200362d565b5060010190565b6fffffffffffffffffffffffffffffffff8281168282160390808211156200373157620037316200362d565b5092915050565b6000602082840312156200374b57600080fd5b815162000b49816200357f565b8051600281900b8114620020dd57600080fd5b6000602082840312156200377e57600080fd5b62000b498262003758565b6fffffffffffffffffffffffffffffffff8181168382160190808211156200373157620037316200362d565b60008060408385031215620037c957600080fd5b505080516020909101519092909150565b6000825160005b81811015620037fd5760208186018101518583015201620037e1565b506000920191825250919050565b805161ffff81168114620020dd57600080fd5b60008060008060008060c087890312156200383857600080fd5b86516200384581620031d1565b9550620038556020880162003758565b945062003865604088016200380b565b9350606087015160ff811681146200387c57600080fd5b92506200388c608088016200380b565b915060a08701516200389e816200357f565b809150509295509295509295565b6000806000806000806000806000806000806101808d8f031215620038d057600080fd5b8c516affffffffffffffffffffff81168114620038ec57600080fd5b9b50620038fc60208e016200369d565b9a506200390c60408e016200369d565b99506200391c60608e016200369d565b98506200392c60808e016200369d565b97506200393c60a08e0162003758565b96506200394c60c08e0162003758565b95506200395c60e08e01620035ec565b94506101008d015193506101208d015192506200397d6101408e01620035ec565b91506200398e6101608e01620035ec565b90509295989b509295989b509295989b565b600060208284031215620039b357600080fd5b505191905056fe60c0604052600160075560016008553480156200001b57600080fd5b506040516200228038038062002280833981810160405260408110156200004157600080fd5b508051602090910151620000566000620000d2565b6001600160a01b03828116608052811660a0526004805462ffffff63ffffffff60c81b011916600160c81b4263ffffffff160262ffffff19161762f27618179055620000a6620d89e719620001c8565b6004805462ffffff9290921663010000000265ffffff0000001990921691909117905550620001f99050565b620d89e719620000e281620001c8565b620d89e7196000818152602085905260409020600101805465ffffffffffff60801b1916600160981b62ffffff9485160262ffffff60801b191617600160801b9490931693909302919091179091556200013c81620001c8565b8260006200014e620d89e719620001c8565b60020b60020b81526020019081526020016000206001016010846000620d89e7196200017a90620001c8565b60020b81526020810191909152604001600020600101805462ffffff948516600160981b0262ffffff60981b1990911617905581549383166101009190910a90810292021990921617905550565b60008160020b627fffff198103620001f057634e487b7160e01b600052601160045260246000fd5b60000392915050565b60805160a0516120536200022d6000396000818161044101526107e801526000818161028c01526112ec01526120536000f3fe608060405234801561001057600080fd5b50600436106101365760003560e01c80638e76c332116100b2578063d6b83ede11610081578063f0de822811610066578063f0de822814610463578063f30dba9314610495578063fddf08e51461054c57600080fd5b8063d6b83ede14610401578063ef01df4f1461043c57600080fd5b80638e76c332146102d7578063a88a5c1614610315578063ca16ca7e14610384578063d576dfc0146103bb57600080fd5b8063556ed30e116101095780636f4a2cd0116100ee5780636f4a2cd0146102485780637f463bb8146102505780638a2ade581461028757600080fd5b8063556ed30e1461020f5780635e075b531461023d57600080fd5b80630bd6f2001461013b57806334d335901461017e57806346caf2ae146101ba57806351b42b0014610205575b600080fd5b6101656004803603604081101561015157600080fd5b508035600290810b9160200135900b610583565b6040805192835260208301919091528051918290030190f35b6101a66004803603604081101561019457600080fd5b50803560020b906020013515156107ce565b604080519115158252519081900360200190f35b6004546101e090660100000000000090046fffffffffffffffffffffffffffffffff1681565b604080516fffffffffffffffffffffffffffffffff9092168252519081900360200190f35b61020d610bdf565b005b6004546101a6907d010000000000000000000000000000000000000000000000000000000000900460ff1681565b600754600854610165565b61020d610c31565b61020d6004803603604081101561026657600080fd5b506fffffffffffffffffffffffffffffffff81358116916020013516610c43565b6102ae7f000000000000000000000000000000000000000000000000000000000000000081565b6040805173ffffffffffffffffffffffffffffffffffffffff9092168252519081900360200190f35b6004546102fe90760100000000000000000000000000000000000000000000900460020b81565b6040805160029290920b8252519081900360200190f35b6005546fffffffffffffffffffffffffffffffff808216917001000000000000000000000000000000009004165b60405180836fffffffffffffffffffffffffffffffff168152602001826fffffffffffffffffffffffffffffffff1681526020019250505060405180910390f35b61020d6004803603604081101561039a57600080fd5b506fffffffffffffffffffffffffffffffff81358116916020013516610ca4565b6004546103e890790100000000000000000000000000000000000000000000000000900463ffffffff1681565b6040805163ffffffff9092168252519081900360200190f35b61020d6004803603608081101561041757600080fd5b508035600290810b916020810135820b916040820135600f0b9160600135900b610cbc565b6102ae7f000000000000000000000000000000000000000000000000000000000000000081565b6006546fffffffffffffffffffffffffffffffff80821691700100000000000000000000000000000000900416610343565b610510600480360360208110156104ab57600080fd5b50600060208190529035600290810b8252604090912080546001820154828401546003909301549193600f82900b937001000000000000000000000000000000008304820b9373010000000000000000000000000000000000000090930490910b9186565b60408051968752600f9590950b6020870152600293840b868601529190920b6060850152608084019190915260a0830152519081900360c00190f35b61020d6004803603604081101561056257600080fd5b506fffffffffffffffffffffffffffffffff81358116916020013516610ed4565b600282810b600090815260208190526040812060010154909182917001000000000000000000000000000000008104820b73010000000000000000000000000000000000000090910490910b14806106205750600283810b6000908152602081905260409020600101547001000000000000000000000000000000008104820b73010000000000000000000000000000000000000090910490910b145b15610657576040517f0d6e094900000000000000000000000000000000000000000000000000000000815260040160405180910390fd5b60045460075460085463ffffffff79010000000000000000000000000000000000000000000000000084048116420393760100000000000000000000000000000000000000000000900460020b9291908416156107af57600454660100000000000090046fffffffffffffffffffffffffffffffff1680156107ad5760055460065463ffffffff87166fffffffffffffffffffffffffffffffff8084168202811693700100000000000000000000000000000000908190048216909202811692818116929004168184111561072a578193505b80831115610736578092505b831561076f5761076a84700100000000000000000000000000000000876fffffffffffffffffffffffffffffffff16610ee8565b870196505b82156107a8576107a383700100000000000000000000000000000000876fffffffffffffffffffffffffffffffff16610ee8565b860195505b505050505b505b6107be60008989868686610fa0565b95509550505050505b9250929050565b60003373ffffffffffffffffffffffffffffffffffffffff7f0000000000000000000000000000000000000000000000000000000000000000161461083f576040517f545acb2400000000000000000000000000000000000000000000000000000000815260040160405180910390fd5b6004546fffffffffffffffffffffffffffffffff6601000000000000820416907601000000000000000000000000000000000000000000008104600290810b9163ffffffff7901000000000000000000000000000000000000000000000000008204169160ff7d0100000000000000000000000000000000000000000000000000000000008304169180820b916301000000909104900b82156108eb5760009650505050505050610bd9565b600285810b908a900b1380159061091e578260020b8a60020b12610919576001975050505050505050610bd9565b61093c565b8160020b8a60020b121561093c576001975050505050505050610bd9565b881515811515146109a0575050600480547fffff00ffffffffffffffffffffffffffffffffffffffffffffffffffffffffff167d0100000000000000000000000000000000000000000000000000000000001790555060009450610bd99350505050565b6109bc85886fffffffffffffffffffffffffffffffff1661103e565b6007546008548a15610a71575b600288900b620d89e71914610a6c578460020b8c60020b1215610b0257600285810b600090815260208190526040812060038101805482850180548803905585039055600101547fffffffffffffffffffffffffffffffffffffffffffffffffffffffffffffffff88019a50700100000000000000000000000000000000810490920b969550600f9190910b90610a64908b9083900361120d565b9950506109c9565b610b02565b6001610a80620d89e719611f26565b610a8a9190611f64565b60020b8860020b14610b02578360020b8c60020b12610b0257600284810b600090815260208190526040902060038101805482840180548703905584039055600101549498508895507301000000000000000000000000000000000000008504900b93600f0b610afa8a8261120d565b995050610a71565b50506004805462ffffff9384166301000000027fffffffffffffffffffffffffffffffffffffffffffffffffffff000000000000858e16760100000000000000000000000000000000000000000000027fffffffffffffff000000ffffffffffffffffffffffffffffffffffffffffffff6fffffffffffffffffffffffffffffffff909c166601000000000000029b909b167fffffffffffffff00000000000000000000000000000000000000ffffffffffff90931692909217999099171693909216929092179590951790945550600193505050505b92915050565b610be76112d4565b600480547fffff00ffffffffffffffffffffffffffffffffffffffffffffffffffffffffff167d010000000000000000000000000000000000000000000000000000000000179055565b610c396112d4565b610c41611343565b565b610c4b6112d4565b610c53611343565b6fffffffffffffffffffffffffffffffff9182169116700100000000000000000000000000000000027fffffffffffffffffffffffffffffffff000000000000000000000000000000001617600555565b610cac6112d4565b610cb86000838361138f565b5050565b610cc46112d4565b6004546fffffffffffffffffffffffffffffffff66010000000000008204169063ffffffff7901000000000000000000000000000000000000000000000000008204169060ff7d0100000000000000000000000000000000000000000000000000000000008204169063010000008104600290810b91900b82610d9d57610d4c86828461146f565b610d9d57600480547fffff00ffffffffffffffffffffffffffffffffffffffffffffffffffffffffff167d010000000000000000000000000000000000000000000000000000000000179055600192505b50508015610dad57505050610ece565b600480547fffffffffffffff000000ffffffffffffffffffffffffffffffffffffffffffff1676010000000000000000000000000000000000000000000062ffffff87160217905563ffffffff82164263ffffffff161115610e2557610e2582846fffffffffffffffffffffffffffffffff1661103e565b84600f0b600014610eca576000610e3f8886886000611494565b90506000610e508887896001611494565b9050610e5d868a8a61146f565b15610ea557610e6c858861120d565b600460066101000a8154816fffffffffffffffffffffffffffffffff02191690836fffffffffffffffffffffffffffffffff1602179055505b8180610eae5750805b15610ec757610ec7898984848a60008d600f0b126114b8565b50505b5050505b50505050565b610edc6112d4565b610cb86001838361138f565b6000838302817fffffffffffffffffffffffffffffffffffffffffffffffffffffffffffffffff85870982811083820303915050808411610f2857600080fd5b80600003610f3b57508290049050610f99565b8385870960008581038616958690049560026003880281188089028203028089028203028089028203028089028203028089028203028089029091030291819003819004600101858411909403939093029190930391909104170290505b9392505050565b600285810b60009081526020889052604080822087840b8084529183209293849391929088900b1215611016578860020b8760020b12610ff157816002015486039350816003015485039250611000565b81600201549350816003015492505b6002810154600382015494039390920391611031565b81600201548160020154039350816003015481600301540392505b5050965096945050505050565b63ffffffff4283900316600081900361105657505050565b81156111bc576005546006546fffffffffffffffffffffffffffffffff8083168402927001000000000000000000000000000000009081900482168502928083169291900416818411156110ba57816fffffffffffffffffffffffffffffffff1693505b806fffffffffffffffffffffffffffffffff168311156110ea57806fffffffffffffffffffffffffffffffff1692505b838317156111b7576fffffffffffffffffffffffffffffffff9182168490039116829003831561113a576111308470010000000000000000000000000000000088610ee8565b6007805490910190555b82156111665761115c8370010000000000000000000000000000000088610ee8565b6008805490910190555b6fffffffffffffffffffffffffffffffff808316908216700100000000000000000000000000000000027fffffffffffffffffffffffffffffffff0000000000000000000000000000000016176006555b505050505b5050600480547fffffff00000000ffffffffffffffffffffffffffffffffffffffffffffffffff167901000000000000000000000000000000000000000000000000004263ffffffff160217905550565b60008082600f0b121561127157508082016fffffffffffffffffffffffffffffffff8084169082161061126c576040517f1301f74800000000000000000000000000000000000000000000000000000000815260040160405180910390fd5b610bd9565b826fffffffffffffffffffffffffffffffff168284019150816fffffffffffffffffffffffffffffffff161015610bd9576040517f997402f200000000000000000000000000000000000000000000000000000000815260040160405180910390fd5b3373ffffffffffffffffffffffffffffffffffffffff7f00000000000000000000000000000000000000000000000000000000000000001614610c41576040517fae74b17800000000000000000000000000000000000000000000000000000000815260040160405180910390fd5b600454610c4190790100000000000000000000000000000000000000000000000000810463ffffffff1690660100000000000090046fffffffffffffffffffffffffffffffff1661103e565b611397611343565b6fffffffffffffffffffffffffffffffff828217161561146a576006546fffffffffffffffffffffffffffffffff808216917001000000000000000000000000000000009004168415611401576113ee8483611fa5565b91506113fa8382611fa5565b905061141a565b61140b8483611fd5565b91506114178382611fd5565b90505b6fffffffffffffffffffffffffffffffff9182169116700100000000000000000000000000000000027fffffffffffffffffffffffffffffffff0000000000000000000000000000000016176006555b505050565b60008260020b8460020b1215801561148c57508160020b8460020b125b949350505050565b6007546008546000916114af918391889188918891886115e7565b95945050505050565b600454600154600282810b9263010000009004900b9063ffffffff1682828289156114f3576114eb8c898386868c61171b565b919450925090505b881561150f576115078b898386868c61171b565b919450925090505b8260020b8660020b14158061152a57508160020b8560020b14155b8061154157508363ffffffff168163ffffffff1614155b156115d957600180547fffffffffffffffffffffffffffffffffffffffffffffffffffffffff000000001663ffffffff8316179055600480547fffffffffffffffffffffffffffffffffffffffffffffffffffff00000000000016630100000062ffffff858116919091027fffffffffffffffffffffffffffffffffffffffffffffffffffffffffff00000016919091179085161790555b505050505050505050505050565b600286900b6000908152602088905260408120805482611607828961120d565b6fffffffffffffffffffffffffffffffff1690506d09745258e83de0d0f4e400fce799811115611663576040517f25b8364a00000000000000000000000000000000000000000000000000000000815260040160405180910390fd5b6001830154600f0b856116875788600f0b81600f0b6116829190611ffe565b611699565b88600f0b81600f0b6116999190612026565b6001850180547fffffffffffffffffffffffffffffffff00000000000000000000000000000000166fffffffffffffffffffffffffffffffff9290921691909117905581845581159450600083900361170c57841594508960020b8b60020b1361170c5760038401879055600284018890555b50505050979650505050505050565b6000806000831561176457600080611733818c61181c565b915091508a60020b8860020b0361174c5781975061175d565b8a60020b8760020b0361175d578096505b50506117fa565b6000808a60020b8860020b12801561178157508a60020b8760020b135b156117aa57508690508560028a810b908c900b13156117a2578a96506117ea565b8a97506117ea565b6117b8600360028b8e611a5a565b600281810b6000908152602081905260409020600101547001000000000000000000000000000000009004900b925090505b6117f760008c8484611b37565b50505b600061180a600360028a8d611cab565b969a9599509597509395505050505050565b600281810b60008181526020859052604081206001810180548383557fffffffffffffffffffff0000000000000000000000000000000000000000000081169091558185018390556003909101919091557001000000000000000000000000000000008104830b92730100000000000000000000000000000000000000909104900b90620d89e71914806118c157506118b8620d89e719611f26565b60020b8360020b145b1561196657600283900b6000908152602085905260409020600101805462ffffff808516700100000000000000000000000000000000027fffffffffffffffffffffffffff000000ffffffffffffffffffffffffffffffff91851673010000000000000000000000000000000000000002919091167fffffffffffffffffffff000000000000ffffffffffffffffffffffffffffffff909216919091171790556107c7565b8060020b8260020b036119a5576040517f0d6e094900000000000000000000000000000000000000000000000000000000815260040160405180910390fd5b600282810b6000908152602086905260408082206001908101805462ffffff808816730100000000000000000000000000000000000000027fffffffffffffffffffff000000ffffffffffffffffffffffffffffffffffffff909216919091179091559385900b83529120018054918416700100000000000000000000000000000000027fffffffffffffffffffffffffff000000ffffffffffffffffffffffffffffffff9092169190911790559250929050565b600190810190600090600883811d610d8a01901c90829061ffff83161b851663ffffffff1615611abd57611a8e8785611d43565b90945090925090508015611aa357505061148c565b611ab486610d8b840160010b611d43565b90945090925090505b80611b0057611adb8563ffffffff168360010193508360010b611d74565b909350905080611af35750620d89e8915061148c9050565b611afd8684611ecb565b92505b611b2c877ffffffffffffffffffffffffffffffffffffffffffffffffffffffffffffff2768501611ecb565b979650505050505050565b600283900b620d89e7191480611b5e5750611b55620d89e719611f26565b60020b8360020b145b610ece578260020b8260020b128015611b7c57508260020b8160020b135b611bb2576040517fe45ac17d00000000000000000000000000000000000000000000000000000000815260040160405180910390fd5b600283810b60009081526020959095526040808620600190810180547fffffffffffffffffffff000000000000ffffffffffffffffffffffffffffffff1673010000000000000000000000000000000000000062ffffff87811682027fffffffffffffffffffffffffff000000ffffffffffffffffffffffffffffffff908116939093177001000000000000000000000000000000008a831681029190911790945597860b8a52848a20840180547fffffffffffffffffffff000000ffffffffffffffffffffffffffffffffffffff1698909916908102979097179097559390920b865290942090930180549092169202919091179055565b81600080611ce88785600881901d600181810b60009081526020949094526040909320805460ff9093169390931b80831890935591811490151891565b915091508115611d3957610d8a01600181810b60081d80820b6000908152602089905260409020805460ff9094169290921b808418909255821591909214818118935014611d39576001811b831892505b5050949350505050565b600881901d600181900b6000908152602084905260408120548190611d689085611d74565b93969095509293505050565b60008060ff831684811c808303611d90578460ff179350611ec2565b7f555555555555555555555555555555555555555555555555555555555555555560008290038216908116156fffffffffffffffffffffffffffffffff82161560071b1777ffffffffffffffff0000000000000000ffffffffffffffff82161560061b177bffffffff00000000ffffffff00000000ffffffff00000000ffffffff82161560051b177dffff0000ffff0000ffff0000ffff0000ffff0000ffff0000ffff0000ffff82161560041b177eff00ff00ff00ff00ff00ff00ff00ff00ff00ff00ff00ff00ff00ff00ff00ff82161560031b177f0f0f0f0f0f0f0f0f0f0f0f0f0f0f0f0f0f0f0f0f0f0f0f0f0f0f0f0f0f0f0f0f82161560021b177f33333333333333333333333333333333333333333333333333333333333333339091161560011b1760ff1685019350600192505b50509250929050565b600181900b600090815260208390526040902054600882901b90611eef9082611d74565b509392505050565b7f4e487b7100000000000000000000000000000000000000000000000000000000600052601160045260246000fd5b60008160020b7fffffffffffffffffffffffffffffffffffffffffffffffffffffffffff8000008103611f5b57611f5b611ef7565b60000392915050565b600282810b9082900b037fffffffffffffffffffffffffffffffffffffffffffffffffffffffffff8000008112627fffff82131715610bd957610bd9611ef7565b6fffffffffffffffffffffffffffffffff818116838216019080821115611fce57611fce611ef7565b5092915050565b6fffffffffffffffffffffffffffffffff828116828216039080821115611fce57611fce611ef7565b808201828112600083128015821682158216171561201e5761201e611ef7565b505092915050565b8181036000831280158383131683831282161715611fce57611fce611ef756fea164736f6c6343000814000aa164736f6c6343000814000a",
  "linkReferences": {},
  "deployedLinkReferences": {}
}